:020000040800F2
:10000000A01A002045010008012700080327000866
:10001000072700080B2700080F2700080000000032
:10002000000000000000000000000000132700088E
:1000300015270008000000001727000819270008EE
:100040005F0100085F0100085F0100085F01000810
:100050005F0100085F0100085F0100085F01000800
:100060005F0100085F0100085F0100085F010008F0
:100070005F0100085F0100085F0100085F010008E0
:100080005F0100085F010008E72700085F01000822
:100090005F0100085F0100085F0100085F010008C0
:1000A0005F0100085F0100085F0100085F010008B0
:1000B0000D2800085F0100085F0100085F010008CB
:1000C0005F0100085F0100085F0100085F01000890
:1000D0005F010008212700089B270008412700082E
:1000E0005F0100085F0100085F0100085F01000870
:1000F0005F0100085F0100085F0100085F01000860
:100100005F0100085F0100085F0100085F0100084F
:100110005F0100085F0100085F0100085F0100083F
:100120005F0100085F0100085F0100085F0100082F
:10013000DFF80CD003F064FC004800479921000868
:10014000A01A00200648804706480047FEE7FEE761
:10015000FEE7FEE7FEE7FEE7FEE7FEE7FEE7FEE777
:1001600047020008310100080CB500200190009002
:100170006C48006840F480306A49086000BF6948F4
:10018000006800F4003000900198401C0190009835
:1001900018B90198B0F5A06FF1D16248006800F479
:1001A000003010B10120009001E000200090009884
:1001B000012843D15C48006840F010005A490860AB
:1001C0000846006820F0030008600846006840F018
:1001D0000200086053484068524948600846406839
:1001E00048600846406840F48060486008464068BF
:1001F00020F47C1048600846406840F4E8104860ED
:100200000846006840F08070086000BF45480068FC
:1002100000F000700028F9D04248406820F0030048
:10022000404948600846406840F00200486000BF0E
:100230003C48406800F00C000828F9D10CBD10B50E
:10024000FFF792FF10BD10B53648006840F001007E
:1002500034490860084640683449084031494860DC
:1002600008460068324908402E4908600846006880
:1002700020F4802008600846406820F4FE004860B2
:100280004FF41F008860FFF7DAFF4FF00060294944
:10029000086010BD10B5002100200022214B5B68D2
:1002A00003F00C0121B1042906D0082928D107E068
:1002B000214B224C236027E01F4B204C236023E07E
:1002C000184B5B6803F47010164B5B6803F48032C4
:1002D000022303EB904022B9194B4343174C236090
:1002E0000DE0104B5B6803F4003323B1144B434320
:1002F000124C236003E0104B4343104C236003E097
:100300000D4B0E4C236000BF00BF064B5B68C3F370
:1003100003130C4CE15C094B1B68CB40074C23607A
:1003200010BD000000100240002002400000FFF855
:10033000FFFFF6FE08ED00E000127A00000000204A
:1003400000093D000400002031490143314A116099
:10035000704770B5002100230F22C47804B32D4CE0
:10036000246804F4E064C4F5E064210AC1F10403E4
:10037000CA40447804FA03F1847814402143090107
:10038000254C0678A155047804F01F050124AC40E3
:1003900005786D11AD0005F1E025C5F8004109E0D3
:1003A000047804F01F050124AC401C4D067876113A
:1003B00045F8264070BD1A4A0A400243154B1B1FE0
:1003C0001A60704739B1134A121D12680243114B6B
:1003D0001B1D1A6006E00F4A121D126882430D4B66
:1003E0001B1D1A607047042808D14FF0E0210969ED
:1003F00041F004014FF0E022116107E04FF0E021ED
:10040000096921F004014FF0E022116170470000FA
:100410000000FA050CED00E000E400E080E100E0FF
:1004200080FFFF1F10B50446FA48844208D101211D
:10043000401500F055FD0021601500F051FD17E05A
:10044000F548844208D10121001500F049FD002142
:10045000201500F045FD0BE0F048844208D1012151
:10046000C80300F03DFD00214FF4004000F038FDCE
:1004700010BD30B50246002000235068E84C2040F3
:100480000D790C6844EA0524204350609068E54CDF
:100490002040D1E902542C434D7944EA45042043DD
:1004A0009060D06A20F470000C7C641EE4B2234398
:1004B00040EA0350D06230BD0021016001714171FA
:1004C0008160C16001210174704721B1826842F0EE
:1004D0000102826003E0826822F0010282607047BC
:1004E00021B1826842F48072826003E0826822F463
:1004F00080728260704710B50023CBB21AB1446895
:100500001C43446002E044689C43446010BD816821
:1005100041F0080181607047014600208A6802F0BE
:1005200008020AB1012000E000207047816841F014
:10053000040181607047014600208A6802F00402CD
:100540000AB1012000E00020704721B1826842F426
:10055000A002826003E0826822F4A00282607047F9
:10056000014600208A6802F480020AB1012000E0FE
:100570000020704710B50A4600210023416821F48D
:100580006041531E41EA4331416010BD21B14268D0
:1005900042F40062426003E0426822F4006242607A
:1005A0007047F0B504460D4600200021092D11DDED
:1005B000E068A5F10A0606EB4607072606FA07F1EA
:1005C0008843A5F10A0606EB460603FA06F108433E
:1005D000E0600CE0206905EB4507072606FA07F105
:1005E000884305EB450603FA06F108432061072A14
:1005F0000FDA606B561E06EB86071F2606FA07F118
:100600008843561E06EB860605FA06F1084360632A
:1006100022E00D2A0FDA206BD61F06EB86071F2675
:1006200006FA07F18843D61F06EB860605FA06F19F
:100630000843206310E0E06AA2F10D0606EB86078E
:100640001F2606FA07F18843A2F10D0606EB86067F
:1006500005FA06F10843E062F0BD21B1826842F478
:100660008012826003E0826822F480128260704708
:100670000146C86C80B2704766484C3000687047CD
:1006800021B1426842F48062426003E0426822F491
:1006900080624260704721B1426842F480524260F9
:1006A00003E0426822F48052426070470A4600210B
:1006B000816821F4E04111438160704721B1826873
:1006C00042F40042826003E0826822F400428260C9
:1006D000704721B1826842F40212826003E08268AE
:1006E00022F4021282607047014600208A6802F4F8
:1006F00000120AB1012000E000207047F0B5044666
:100700001546002000220026092911DDE068A1F12C
:100710000A0707EB470C072707FA0CF29043A1F1F1
:100720000A0707EB470703FA07F21043E0600CE003
:10073000206901EB410C072707FA0CF2904301EB0B
:10074000410703FA07F210432061A06BC0F3015682
:10075000EF1C06F1010CA7EB0C0707EB870C1F271A
:1007600007FA0CF29043EF1C06F1010CA7EB0C0703
:1007700007EB870701FA07F21043A063F0BD10B53D
:100780000A4600210023816B21F44011531E41EAE7
:100790000351816310BD08B5002300930090009BB6
:1007A0000B440093009B1A6008BD08B50246002068
:1007B0000090009201F12800009B184400900098DE
:1007C000006880B208BD0A4600214168164B1940F6
:1007D0001143416070474162826270470A460021BE
:1007E000416821F01F0111434160704740B1094940
:1007F0000831096841F40001064A0832116007E037
:1008000004490831096821F40001024A08321160E4
:10081000704700000024014000280140003C0140D6
:10082000FFFEF0FFFDF7F1FFFFFD3FFF0246002056
:1008300013680B400BB1012000E000207047CA4351
:100840000260704770B502460020002300240B129E
:100850005568CEB205EA060415681D4015B10CB105
:10086000012000E0002070BD00220A12D343036083
:100870007047000010B50446CC48844208D10121DD
:10088000042000F02DFB0021042000F029FB46E0AD
:10089000C748844208D10121082000F021FB002133
:1008A000082000F01DFB3AE0C248844208D1012133
:1008B000102000F015FB0021102000F011FB2EE0AD
:1008C000BD48844208D10121202000F009FB00210D
:1008D000202000F005FB22E0B848844208D1012125
:1008E000402000F0FDFA0021402000F0F9FA16E067
:1008F000B348844208D10121802000F0F1FA0021A0
:10090000802000F0EDFA0AE0AE48844207D10121D0
:10091000801500F0E5FA0021A01500F0E1FA10BD05
:1009200010B50121084600F0DBFA0021012000F09B
:10093000D7FA10BD2DE9F04102460025002600201F
:1009400000230024002791F803C00CF00F0591F854
:1009500003C00CF0100CBCF1000F03D091F802C0E2
:100960004CEA050591F800C0BCF1000F31D01468C5
:1009700000202BE04FF0010C0CFA00F3B1F800C09E
:100980000CEA03069E4220D183004FF00F0C0CFAB4
:1009900003F7BC4305FA03FC4CEA040491F803C0D6
:1009A000BCF1280F06D14FF0010C0CFA00FCC2F884
:1009B00014C00AE091F803C0BCF1480F05D14FF014
:1009C000010C0CFA00FCC2F810C0401C0828D1D35E
:1009D0001460B1F800C0BCF1FF0F34DD5468002092
:1009E0002EE000F1080C4FF0010808FA0CF3B1F802
:1009F00000C00CEA03069E4221D183004FF00F0C89
:100A00000CFA03F7BC4305FA03FC4CEA040491F822
:100A100003C0BCF1280F05D100F1080C08FA0CF84E
:100A2000C2F8148091F803C0BCF1480F07D100F15F
:100A3000080C4FF0010808FA0CF8C2F81080401CAE
:100A40000828CED35460BDE8F0814FF6FF710180D5
:100A5000022181700421C170704702460020936812
:100A60000B400BB1012000E0002070470146886870
:100A700080B2704702460020D3680B400BB10120C2
:100A800000E0002070470146C86880B270470161ED
:100A90007047416170470AB1016100E041617047F0
:100AA000C16070474FF480320A4382618161826184
:100AB00082698269704702460020434B18684FF6EE
:100AC0008073184040EA021008433F4B186070479B
:100AD0003E49C8617047F0B50A4600230024002152
:100AE000002500F00046B6F1004F02D1364EF16904
:100AF00001E0354E7168C0F3034583B200F440163F
:100B0000B6F5401F08D121F070612F4E766826F0AF
:100B100070662D4F7E6012E000F48016B6F5801FDF
:100B200006D1032606FA05F4A14341F0706106E000
:100B3000460D360103FA06F6B14341F0706122B169
:100B4000460D360103FA06F6314300F00046B6F1D1
:100B5000004F02D11C4EF16101E01B4E7160F0BDEF
:100B600030B500228B071C0F0F2303FA04F2164B3B
:100B700008338C1053F824309343134C08348D10F1
:100B800044F8253023468C1053F824308C07240F6A
:100B900000FA04F423430C4C08348D1044F825303B
:100BA00030BD0A49DC310860704700000008014090
:100BB000000C0140001001400014014000180140E9
:100BC000001C0140002001400000014000002042C4
:100BD000DF48006840F00100DD49086008464068D1
:100BE000DC490840DA49486008460068DA490840AC
:100BF000D74908600846006820F48020086008464D
:100C0000406820F4FE0048604FF41F008860704781
:100C1000CF49096821F48031CD4A11601146096835
:100C200021F480211160B0F5803F03D0B0F5802F12
:100C30000ED106E0C649096841F48031C44A11600A
:100C400007E0C349096841F4A021C14A116000E0EE
:100C500000BF00BF704710B50146002200230020EE
:100C60004A11012A02D1BA4C236806E0022A02D1B5
:100C7000B74C236A01E0B64C636A01F01F020124FD
:100C800094401C400CB1012000E0002010BD38B59C
:100C9000002000900024002500BF3120FFF7DBFF7B
:100CA00005460098401C00900098B0F5A06F01D058
:100CB000002DF2D03120FFF7CEFF08B1012400E073
:100CC0000024204638BD01460020A14A106820F0CB
:100CD000F80040EAC10010607047A0490860704702
:100CE000024600209A4B586820F47C1042EA010327
:100CF0001843974B586070479849086670470146FB
:100D00000020934A506820F0030008435060704769
:100D10008F48406800F00C007047014600208C4A64
:100D2000506820F0F00008435060704701460020F2
:100D3000874A506820F4E0600843506070470146DD
:100D40000020834A506820F4605040EAC10050609F
:100D5000704729B17E4A527A02437D4B5A7204E0B1
:100D60007B4A527A82437A4B5A7270477B49D83118
:100D70000860704701460020754A506820F44040E2
:100D80000843506070470021714A20321170704A48
:100D900082F82010012802D004280AD104E00121A1
:100DA0006B4A2032117005E00521694A203211702A
:100DB00000E000BF00BF70476949086070476449A0
:100DC000096A0143624A1162704765494439086003
:100DD000704730B500210022002400235C4D6D686F
:100DE00005F00C0121B1042905D0082923D105E023
:100DF0005C4D056022E05B4D05601FE0544D6D6861
:100E000005F47012524D6D6805F48034022505EB2F
:100E100092421CB9544D554305600BE04C4D6D6832
:100E200005F400351DB1504D5543056002E04D4DB0
:100E30005543056002E04B4D056000BF00BF444DC7
:100E40006D6805F0F0010909484D6B5C0568DD40EF
:100E500045603F4D6D6805F4E061090A434D6B5CE8
:100E60004568DD4085603A4D6D6805F46051C90AFA
:100E70003E4D6B5C4568DD40C560354D6D6805F4E1
:100E80004041890B3A4D6B5CC568B5FBF3F50561D4
:100E900030BD29B12E4A526902432D4B5A6104E0FC
:100EA0002B4A526982432A4B5A61704729B1284A1A
:100EB00092690243264B9A6104E0254A9269824373
:100EC000234B9A61704729B1214AD2690243204BD2
:100ED000DA6104E01E4AD26982431D4BDA61704731
:100EE00029B11B4AD2680243194BDA6004E0184A60
:100EF000D2688243164BDA60704729B1144A1269EE
:100F00000243134B1A6104E0114A12698243104BE9
:100F10001A61704712494039086070470F49C86428
:100F200070470B49C87170470948406A40F08070AB
:100F300007494862704701460020054A92680A4006
:100F40000AB1012000E00020704701498872704713
:100F5000001002400000FFF8FFFFF6FE00004242D2
:100F60008004424200127A0000093D001400002073
:100F70002400002010B50446FE48844208D1012117
:100F8000C014FFF7ADFF0021E014FFF7A9FFC4E094
:100F9000B4F1804F08D101210846FFF7AEFF0021D0
:100FA0000120FFF7AAFFB8E0F348844208D10121ED
:100FB0000220FFF7A2FF00210220FFF79EFFACE016
:100FC000EE48844208D101210420FFF796FF00215A
:100FD0000420FFF792FFA0E0E948844208D10121F4
:100FE0000820FFF78AFF00210820FFF786FF94E022
:100FF000E448844208D101211020FFF77EFF002140
:101000001020FFF77AFF88E0DF48844208D10121F1
:101010002020FFF772FF00212020FFF76EFF7CE009
:10102000DA48844208D101214014FFF759FF00211A
:101030006014FFF755FF70E0D548844209D10121C3
:10104000C804FFF74DFF00214FF40020FFF748FFD1
:1010500063E0D048844209D101210805FFF740FF31
:1010600000214FF48010FFF73BFF56E0CA4884424E
:1010700009D101214805FFF733FF00214FF400108B
:10108000FFF72EFF49E0C548844208D101214020E6
:10109000FFF733FF00214020FFF72FFF3DE0C0485E
:1010A000844208D101218020FFF727FF0021802002
:1010B000FFF723FF31E0BB48844208D101218015AE
:1010C000FFF71BFF0021A015FFF717FF25E0B6482B
:1010D000844209D101210804FFF702FF00214FF4E7
:1010E0008030FFF7FDFE18E0B048844209D10121AD
:1010F0004804FFF7F5FE00214FF40030FFF7F0FE43
:101100000BE0AB48844208D101218804FFF7E8FED8
:1011100000214FF48020FFF7E3FE10BD002202887B
:10112000944B98420ED0994B98420BD0B0F1804F1F
:1011300008D0914B984205D0904B984202D0904BEA
:10114000984204D14FF68F731A404B881A438D4B47
:10115000984207D08C4B984204D04FF6FF431A4078
:10116000CB881A4302808B8883850B880385814B4B
:1011700098420BD0854B984208D08B4B984205D0B3
:101180008A4B984202D08A4B984201D10B7A03864F
:1011900001238382704770B5002400220023058C50
:1011A0004FF6FE7635400584028C8388048B4FF61B
:1011B0008F752C40B51E2C400D882C43751E2A407F
:1011C0000D892A434D882A436A4DA8420BD06F4DA2
:1011D000A84208D0744DA84205D0744DA84202D050
:1011E000734DA84213D14FF6F7752A404D892A4313
:1011F0004FF6FB752A408D882A434FF6FF652B403A
:101200004FF6FF552B408D892B43CD892B4383808F
:101210000483CD888586028470BD70B500240022C9
:101220000023058C4FF6EF7635400584028C8388C9
:10123000048B48F6FF752C404FF6FF452C400D8877
:101240004FF6FF7606EA05252C434FF6DF752A4058
:101250000D8906EA05152A434D8806EA05152A4335
:10126000444DA84202D0494DA8421DD14FF67F758A
:101270002A404D894FF6FF7606EA05152A434FF6B8
:10128000BF752A408D8806EA05152A434FF6FF35BB
:101290002B404FF2FF752B408D8906EA85052B43C5
:1012A000CD8906EA85052B4383800483CD88058795
:1012B000028470BD70B5002400220023058C4FF617
:1012C000FF6635400584028C8388848B4FF68F75CA
:1012D0002C404FF6FC752C400D882C434FF6FF55E3
:1012E0002A400D894FF6FF7606EA05252A434D88E8
:1012F00006EA05252A431F4DA84202D0234DA842E5
:101300001DD14FF2FF752A404D894FF6FF7606EA50
:1013100005252A434FF6FF352A408D8806EA052524
:101320002A434EF6FF752B404DF6FF752B408D89F5
:1013300006EA05152B43CD8906EA05152B43838064
:101340008483CD888587028470BD70B50022002318
:101350000024058C4EF6FF7635400584038C848886
:10136000828B48F6FF752A404FF6FF452A400D88CC
:1013700020E00000002C0140000400400008004074
:10138000000C0040001000400014004000340140F8
:10139000004C014000500140005401400018004042
:1013A000001C00400020004000400140004401407B
:1013B000004801404FF6FF7606EA05252A434DF620
:1013C000FF752B400D8906EA05352B434D8806EA4B
:1013D00005352B43FA4DA84202D0FA4DA84208D158
:1013E0004BF6FF752C408D894FF6FF7606EA851582
:1013F0002C4384808283CD88A0F84050038470BD44
:10140000828B4FF2FF331A408283828B4FF6FF7339
:1014100003EA01231A4382837047F0B50C46154650
:10142000002200210026078C4EF6FF7C07EA0C07FD
:101430000784828B018C4FF6FF7707EA043640F66B
:10144000FF473A404FF6FF7707EA05273A434FF642
:10145000FF7707EA03373A43D94FB8420ED0D94F46
:10146000B8420BD0B0F1804F08D0D74FB84205D06A
:10147000D64FB84202D0D64FB84206D14DF6FF77CC
:10148000394046F48057394305E047F6FF57394065
:1014900044F48057394382830184F0BD828B4FF638
:1014A000F3731A408283828B0A4382837047F0B5BC
:1014B0000C461546002200210026078C4FF6FF6CD3
:1014C00007EA0C070784828B018C4FF6FF7707EA47
:1014D00004264FF60C773A404FF6FF7707EA0317DA
:1014E0002F433A43B64FB8420ED0B64FB8420BD056
:1014F000B0F1804F08D0B44FB84205D0B34FB842D6
:1015000002D0B34FB84206D14FF6FF57394046F4E8
:101510008077394305E04FF2FF57394044F4807734
:10152000394382830184F0BD028B4FF2FF331A40AE
:101530000283028B4FF6FF7303EA01231A430283EF
:101540007047F0B50C461546002200210026078C96
:101550004FF6EF7C07EA0C070784028B018C4FF6ED
:10156000FF7707EA041640F6FF473A404FF6FF7749
:1015700007EA03373A434FF6FF7707EA05273A436E
:101580008F4FB8420ED08F4FB8420BD0B0F1804F82
:1015900008D08D4FB84205D08C4FB84202D08C4F46
:1015A000B84206D14FF6DF77394046F0100739438D
:1015B00005E04FF65F77394044F010073943028366
:1015C0000184F0BD028B4FF6F3731A400283028B45
:1015D0000A4302837047F0B50C46154600220021ED
:1015E000068C4FF6FE773E400684028B018C4FF648
:1015F0000C7632407E1C06EA03162E433243704EB0
:10160000B0420ED06F4EB0420BD0B0F1804F08D038
:101610006D4EB04205D06D4EB04202D06C4EB0421D
:1016200006D14FF6FD76314044F00106314305E026
:101630004FF6F576314044F00106314302830184D0
:10164000F0BD70B505460C465D4885420ED05D483C
:1016500085420BD0B5F1804F08D05B48854205D05C
:101660005A48854202D05A48854200D100E000BF66
:10167000208850B92389A28861882846FFF7ABFFEC
:10168000E1882846FFF79EFF25E0208804280AD13C
:101690002389A28861882846FFF753FFE1882846FE
:1016A000FFF742FF17E0208808280AD12389A28883
:1016B00061882846FFF7FBFEE1882846FFF7EEFE2B
:1016C00009E02389A28861882846FFF7A6FEE18801
:1016D0002846FFF795FE70BD2DE9F04105460C4602
:1016E00000260127608808B9022600E00026A088AD
:1016F000012801D1022700E001272088A0B9238911
:10170000A28861882846FFF766FFE1882846FFF730
:1017100059FF23893A4631462846FFF712FFE188F0
:101720002846FFF701FF13E02389A2886188284635
:10173000FFF707FFE1882846FFF7F6FE23893A46C0
:1017400031462846FFF747FFE1882846FFF73AFF72
:10175000BDE8F0810A884B881A438B881A43CB88EE
:101760001A430B891A434B891A438B891A43A0F8F1
:10177000442070474FF6FF71818000210180C180B5
:101780004180017270470021018041808180C180C9
:10179000018141818181C1817047002101804180A7
:1017A000012181800021C1800181704700210180D9
:1017B00041808180C1800181418181817047000029
:1017C000002C0140003401400004004000080040AB
:1017D000000C004021B1028842F00102028004E0C6
:1017E00002884FF6FE731A400280704731B1B0F89C
:1017F000442042F40042A0F8442005E0B0F8442020
:10180000C2F30E02A0F8442070471AB183890B433B
:10181000838102E083898B43838170478182704793
:1018200041EA0203A0F8483070471AB183890B439C
:10183000838102E083898B438381704701894FF65E
:10184000F8721140018170470A46002101894FF664
:101850008F73194011430181704730B504460D461E
:1018600029462046FFF7F0FF208940F0070020813D
:1018700030BD2DE9F04104460D4616461F46602D49
:1018800006D13B46012231462046FFF75AFE05E0CD
:101890003B46012231462046FFF79DFE2946204661
:1018A000FFF7D2FF208940F007002081BDE8F081DA
:1018B00030B50C4600210189C9B24FF6FF7505EA23
:1018C0000325154325432943018130BD2DE9F0410E
:1018D00005460E4617469846002443463A4631468A
:1018E0002846FFF7E5FF2C894FF6F870044044F0D6
:1018F00007044FF68F70044044F070042C81BDE85B
:10190000F081F0B504460D4616461F463B4632466A
:1019100029462046FFF7CCFF208940F480402081F3
:10192000F0BD0185828270470A46002101884FF68A
:101930008F731940114301807047F0B50C4615466E
:101940001E460021002200230189028B038C4FF6E2
:10195000F877394021434FF6FC473A4040F20117EF
:101960003A434FF6DD773B404FF6FF7707EA06171D
:101970002F433B43018102830384F0BD0A460021CB
:10198000018B4FF68F7319401143018370470A464C
:101990000021018B48F6FF7319404FF6FF7303EAED
:1019A00002231943018370470A460021818B4FF6B9
:1019B0008F7319401143818370470A460021818B40
:1019C00048F6FF7319404FF6FF7303EA02231943E9
:1019D0008183704721B1028842F08002028004E0D6
:1019E00002884FF67F731A400280704721B18288C7
:1019F00042F00402828004E082884FF6FB731A40B2
:101A00008280704721B1828842F00802828004E01F
:101A100082884FF6F7731A408280704721B182881E
:101A200042F00102828004E082884FF6FE731A4081
:101A3000828070470A460021018B4FF6F7731940E8
:101A40001143018370470A460021018B4FF2FF7357
:101A500019404FF6FF7303EA0223194301837047CD
:101A60000A460021818B4FF6F77319401143818399
:101A700070470A460021818B4FF2FF7319404FF6E1
:101A8000FF7303EA02231943818370470A4600214A
:101A9000018B4FF6FB7319401143018370470A46CF
:101AA0000021018B4FF6FF3319404FF6FF7303EA15
:101AB00002231943018370470A460021818B4FF6A8
:101AC000FB7319401143818370470A460021818BC3
:101AD0004FF6FF3319404FF6FF7303EA0223194311
:101AE000818370470A460021018B4FF67F731940AE
:101AF0001143018370470A460021018BC1F30E0197
:101B00004FF6FF7303EA02231943018370470A4625
:101B10000021818B4FF67F731940114381837047F9
:101B20000A460021818BC1F30E014FF6FF7303EAD1
:101B300002231943818370470A460021018C4FF626
:101B4000FD7319401143018470470A460021018C3E
:101B50004FF6F77319401143018470470A4600217C
:101B6000018C4FF6DF7319404FF6FF7303EA02133F
:101B70001943018470470A460021018C4FF67F7398
:101B800019404FF6FF7303EA0213194301847047AB
:101B90000A460021018C4FF6FF5319404FF6FF73A0
:101BA00003EA02231943018470470A460021018C8D
:101BB0004FF2FF7319404FF6FF7303EA02231943F4
:101BC000018470470A460021018C4DF6FF731940CD
:101BD0004FF6FF7303EA023319430184704730B5AF
:101BE000002301248C40A3B2048C9C430484048C05
:101BF00002FA01F5ADB22C43048430BD30B50023A8
:101C000004248C40A3B2048C9C430484048C02FA08
:101C100001F5ADB22C43048430BD70B503460020FD
:101C200000241846183001258D40ACB21D8CA54308
:101C30001D8409B1082909D100EB6100056825F070
:101C4000700505600568154305600EE00D1FC5F3BE
:101C50004E052844056825F4E045056005684FF603
:101C6000FF7606EA02263543056070BD21B1028881
:101C700042F00202028004E002884FF6FD731A402F
:101C80000280704721B1028842F00402028004E021
:101C900002884FF6FB731A400280704721B1828898
:101CA00042F08002828004E082884FF67F731A40FF
:101CB0008280704702884FF6F7731A4002800288CC
:101CC0000A430280704782884FF68F731A408280E1
:101CD00082880A438280704702894FF6F8731A405F
:101CE000028102890A430281704702894FF67F739D
:101CF0001A40028102890A43028170478184704739
:101D0000818570478186704701877047818770475A
:101D1000A0F84010704702884FF6FF431A40028037
:101D200002880A43028070470146888E7047014648
:101D3000088F70470146888F70470146B1F8400010
:101D400070470146888C70470146088D70470246EF
:101D50000020138A0B400BB1012000E000207047E7
:101D6000CA430282704730B5024600200023002497
:101D7000158A05EA0103958905EA010413B10CB13E
:101D8000012000E0002030BDCA43028270470000FD
:101D900010B50446FB48844209D101218803FFF7AE
:101DA0009FF800214FF48040FFF79AF832E0F648A0
:101DB000844209D101214804FFF79FF800214FF424
:101DC0000030FFF79AF825E0F048844209D101215C
:101DD0008804FFF792F800214FF48020FFF78DF878
:101DE00018E0EB48844209D10121C804FFF785F8C7
:101DF00000214FF40020FFF780F80BE0E548844213
:101E000008D101210805FFF778F800214FF4801070
:101E1000FFF773F810BD2DE9F04786B005460E4672
:101E20000024A24600BFA1460027B08900B100BF30
:101E30002F462C8A4CF6FF700440F08804432C8215
:101E4000AC894EF6F3100440B0883189084371899B
:101E500008430443AC81AC8A4FF6FF400440B0898C
:101E60000443AC8201A8FEF7B4FFC648874202D102
:101E7000DDF810A001E0DDF80CA0A88900F4004016
:101E800040B10AEBCA0000EB0A1031684900B0FB10
:101E9000F1F807E00AEBCA0000EB0A10316889008C
:101EA000B0FBF1F86420B8FBF0F0040120096421D4
:101EB00001FB1089A88900F4004040B1322000EBFA
:101EC000C900B0FBF1F000F00700044308E0322045
:101ED00000EB09106421B0FBF1F000F00F000443A7
:101EE0002C8106B0BDE8F0874FF416510160002147
:101EF0008180C18001810C21418100218181704755
:101F000010B502460020108A4FF2FF0318400B88DC
:101F10004C8823438C882343CC8823431843108266
:101F200010BD0021018041808180C180704721B1B6
:101F3000828942F40052828104E082894DF6FF7367
:101F40001A4082817047F0B5034600240026002520
:101F5000002040F66A17B94200D100BF1846C1F30D
:101F6000421401F01F06012707FA06F5012C01D1E2
:101F70000C3004E0022C01D1103000E014301AB112
:101F800007682F43076002E00768AF430760F0BDB2
:101F90001AB1838A0B43838202E0838A8B43838254
:101FA0007047028A4FF6F0731A400282028A0A438F
:101FB0000282704782894FF2FF731A4082818289C0
:101FC0000A438281704721B1828942F002028281F4
:101FD00004E082894FF6FD731A4082817047028ABD
:101FE0004FF6DF731A400282028A0A430282704768
:101FF00021B1028A42F48042028204E0028A4BF656
:10200000FF731A4002827047C1F308028280704752
:1020100001468888C0F308007047818941F00101BA
:1020200081817047028BD2B20283028B42EA012285
:1020300002837047028B02F47F420283028B0A43C1
:102040000283704721B1828A42F02002828204E03A
:10205000828A4FF6DF731A408282704721B1828AEA
:1020600042F01002828204E0828A4FF6EF731A4037
:102070008282704721B1828A42F00802828204E0A3
:10208000828A4FF6F7731A408282704721B18289A3
:1020900042F40042828103E08289C2F30E0282810F
:1020A000704721B1828A42F40062828204E0828A0F
:1020B0004FF2FF731A4082827047828A4FF6FB7399
:1020C0001A408282828A0A438282704721B1828AC0
:1020D00042F00202828204E0828A4FF6FD731A40C7
:1020E0008282704702460020B1F5007F00D100BF18
:1020F00013880B400BB1012000E00020704701F471
:102100000072B2F5007F00D100BFCA430280704761
:1021100070B50246002400230025002040F66A1610
:10212000B14200D100BFC1F3421501F01F030126E7
:1021300006FA03F3012D02D19689334006E0022D01
:1021400002D1168A334001E0968A33400C120126F0
:1021500006FA04F41688344013B10CB1012000E0F3
:10216000002070BD10B50022002340F66A14A14281
:1021700000D100BF0A1201249440A3B2DC430480C2
:1021800010BD0000003801400044004000480040FD
:10219000004C00400050004000F079FB00F0BBFE16
:1021A00000F063FF00F058FC00F060FD00BF00F09D
:1021B00052FE0028FBD1E2A001F044FC00F029FD12
:1021C000E4A001F03FFCB9E100F04DFE064601F04D
:1021D00059FA044622460B46E2A001F033FC00F017
:1021E00042FE064601F04EFA044622460B46E3A1A3
:1021F000E84801F037FCE749E74800F0DFFEE7A1D7
:10220000E74800F0EDFFE74908601322084601683F
:10221000E54800F0F7FF1122E24801681431E34875
:1022200000F0F0FFE049DC4800F0C8FE0A21DA487F
:1022300000F0B5FEDD49D84800F0C0FE0A21D648BE
:1022400000F0ADFED849DAA001F0FCFBD749D8A0D8
:1022500001F0F8FB00F0E5FC0121D648FEF717FC81
:102260004FF47A7000F005FCD3480078012862D161
:10227000D24800F0FEFB0020D149086028E0D14898
:10228000008801F0E9F981464FF08B4101F01EF81A
:10229000044601F0F7F907464FF06632CA4B01F0E9
:1022A000FAF8054601F001FAC849086008460068D6
:1022B00001F0E8F9C64AC74B1B6802EBC30203C230
:1022C0000A2000F0D6FBBE480068401CBC490860EC
:1022D000BB480068C0498842D1DB0020BF49086084
:1022E00012E0BB48BB49096800EBC100D0E90043DC
:1022F0002246BB4903C901F027F8B94A03C2B748CF
:102300000068401CB5490860B4480068B24988427A
:10231000E7DB0022B34BB24903C901F02EF90446B2
:1023200001F0C3F9B04908600020A34908700021FA
:10233000AB4A11605160AC48006801F0A3F9044653
:1023400022460B46A9A001F07DFB0020AC490860A5
:102350003EE09C48008801F07FF981464FF08B41B8
:1023600000F0B4FF044601F08DF907464FF06632E5
:10237000954B01F090F8054601F097F9A1490860E6
:10238000994801689F48006800F09AFF064601F0EE
:1023900079F921F00041044601F087F99A49086073
:1023A0000846006801F06EF904460022974B02F0DF
:1023B00043F8974A924B1B6802EBC30203C241F2F7
:1023C000883000F056FB8E480068401C8C4908603D
:1023D0008B480068B0F5C87FBBDB002088490860E7
:1023E00012E08B488649096800EBC100D0E9004340
:1023F0002246884903C900F0A7FF864A03C28048E5
:102400000068401C7E4908607D480068B0F5C87FC0
:10241000E7DB0022804B7F4903C901F0AEF8044698
:1024200002F0FAFC7D4A03C200207A4A1060506034
:102430004FF47A61764800F0C8FE78480CC878A05E
:1024400001F000FB7B4A7C4B744903C901F023F87F
:10245000044622460B4679A001F0F4FA6A48006867
:1024600001F010F9044622460B4679A001F0EAFA81
:102470006548006801F006F906467E4A7E4B01F089
:102480000AF8044622460B467CA001F0DBFA6348BA
:1024900080A10CC8834801F0E5FA82493E4800F06B
:1024A0008DFD5948006801F0EDF8044622460B46C0
:1024B0007DA1854801F0D6FA8349374800F07EFDBA
:1024C0005C4A5D4B554903C900F0E5FF04462246CE
:1024D0000B467EA1824801F0C5FA81492E4800F0E2
:1024E0006DFD4948006801F0CDF80646614A624B2F
:1024F00000F0D1FF044622460B467AA17E4801F047
:10250000B1FA7D49244800F059FD11A001F09AFA72
:1025100001212848FEF7BDFA00F093FB00202D4969
:10252000086007E0754800F0A4FA2A480068401CDB
:102530002849086027480068B428F3DB44E6000017
:102540000D0A206473313862323020657869742056
:102550000D0A0000CEA2CEC2C2F6B6AFD2C70A0A9A
:102560000A0A000074656D70657261747572652089
:102570003D20256620A1E60D0A00000074656D70FF
:1025800065726174757265203D20256620A1E60A9A
:10259000000000000001002000480040507265006B
:1025A000A015002058000020D8000020EC000020DA
:1025B00025730A00000C014028000020A0860100BD
:1025C0006C0000207800002066660A402C00002085
:1025D000880000206400002020A10700680000207F
:1025E0003800002080841E41300000204669785267
:1025F00065616C416463203D2025660A000000008F
:10260000400000205C00002060000020000010401E
:102610000002002050000020000079404800002007
:1026200064656C74414443203D20256620560D0AA4
:1026300000000000711B0DE02D02A7403464656CA2
:102640007474656D70203D20256620560D0A0000CB
:10265000664144435F436F6E76657274656456618C
:102660006C75654C6F63616C203D20256620560DAE
:102670000A000000B537F8C264224B4064656C74F0
:102680004C61737454656D70203D20256620A1E671
:102690000D0A000064656C74414443203D202566AA
:1026A000200A000032010020664144435F436F6E00
:1026B00076657274656456616C75654C6F63616CA8
:1026C000203D202566200A00640100203464656CEA
:1026D0007474656D70203D202566200A000000009E
:1026E00096010020634C61737454656D70203D2029
:1026F00025662020A1E60A00C801002040420F0004
:10270000704700BFFEE700BFFEE700BFFEE700BF67
:10271000FEE770477047704710B500F0BCF910BD78
:1027200010B540F225514648FFF7F2FC38B1444855
:10273000FFF76EFCC4B221464148FFF765FC10BDAF
:1027400010B540F225513F48FFF7E2FC20B33D4869
:10275000FFF75EFCC4B23C48007840F2FF3188428B
:102760000FDA3A483849097844540021024636487D
:102770000078401C115434480078401C32490870DD
:1027800004E031480078401E30490C54232C03D11A
:102790002E492C4800F012FC10BD10B540F2255116
:1027A0002B48FFF7B5FCE8B12948FFF731FCC4B26C
:1027B00028480078FF280FDA27482649097844542A
:1027C0000021024623480078401C1154214800781B
:1027D000401C2049087004E01E480078401E1E4935
:1027E0000C5400BF10BD10B54FF408711B48FEF724
:1027F00029F8012804D11948FDF73AFF1849088043
:102800004FF408711548FEF72FF810BD10B50121DF
:102810008807FFF7A8FA88B112480068B0F57A7FF8
:1028200003D100200F49086004E00E480068401CF6
:102830000C49086001218807FFF7A6FA10BD0000C7
:1028400000380140004800407A000020A01100201C
:10285000004400407B000020A0150020002401401F
:10286000780000207000002008B54FF4C060FDF72C
:102870006BFD25208DF8000001208DF801008DF8FA
:1028800002008DF803006846FDF763FD08BD00B542
:1028900085B001210420FEF709FB01218803FEF722
:1028A00005FB4FF40070ADF8100018208DF81300F0
:1028B00003208DF8120004A95248FEF73BF84FF4AC
:1028C0008060ADF8100004208DF8130004A94D4875
:1028D000FEF730F84FF4E13000900020ADF804002E
:1028E000ADF80600ADF80800ADF80C000C20ADF80E
:1028F0000A0069464448FFF78EFAFFF7B5FF012248
:1029000040F225514048FFF71EFB01213E48FFF7EA
:102910000EFB05B000BD70B504460D4629462046A5
:10292000FFF772FB00BF80212046FFF7DBFB00288A
:10293000F9D070BD2DE9F04107460D46164600243A
:1029400005E0295D3846FFF7E6FF601CC4B2B442DB
:10295000F7DB00BF40213846FFF7C4FB0028F9D061
:10296000BDE8F08170B506460C46002500BF615DEC
:102970003046FFF7D0FF6D1C605D0028F7D100BF27
:1029800040213046FFF7AEFB0028F9D070BD2DE99D
:10299000F04105460C46260AE7B231462846FFF7C5
:1029A00033FB00BF80212846FFF79CFB0028F9D0AD
:1029B00039462846FFF728FB00BF80212846FFF74D
:1029C00091FB0028F9D0BDE8F08170B504460D46B2
:1029D000E1B20D48FFF718FB00BF80210A48FFF75E
:1029E00081FB0028F9D0204670BD10B5044600BF19
:1029F00020210548FFF776FB0028F9D00248FFF7B1
:102A000007FB10BD000801400038014030B5014609
:102A1000B1F1807F01D3012030BD21F07F40401E05
:102A20004FF0E022506150170F22002807DA1307F9
:102A30001D0E3E4B00F00F04241F1D5503E013072D
:102A40001C0E3B4B1C5400BF00204FF0E022906155
:102A5000072010610020DFE710B5364800683649CE
:102A6000B0FBF1F42046FFF7D1FF08B100BFFEE74D
:102A700010BD01B53149009808604FF0E0200069B1
:102A800040F001004FF0E021086100BF2B480068D2
:102A90000028FBD108BD2948006820B127480068FC
:102AA000401E26490860704731B522480068224917
:102AB000B0FBF1F52846FFF7A9FF002408E000BFAE
:102AC0004FF0E020006900F480300028F8D0641C4A
:102AD00000988442F3D34FF0E020006920F0010019
:102AE0004FF0E021086138BD31B5124800684FF45D
:102AF0007A71B0FBF1F52846FFF788FF002408E063
:102B000000BF4FF0E020006900F480300028F8D0CA
:102B1000641C00988442F3D34FF0E020006920F059
:102B200001004FF0E021086138BD000018ED00E021
:102B300000E400E00000002040420F00740000208C
:102B400008B501210420FEF7B1F90220ADF800001C
:102B500000208DF8030069464248FDF7EBFE08BDF2
:102B600000B585B001214802FEF7A0F900200090D1
:102B70008DF8040001208DF805004FF460200290CC
:102B80000020039001208DF8100069463648FDF7BB
:102B900070FC4FF44040FEF7EDF80523012211468A
:102BA0003148FDF7FEFC01224FF408712E48FDF775
:102BB000A2FC01212C48FDF788FC2B48FDF7A7FC5F
:102BC00000BF2948FDF7A8FC0028FAD12648FDF7E8
:102BD000ADFC00BF2448FDF7AEFC0028FAD101216E
:102BE0002148FDF7B2FC05B000BD08B54FF4E06028
:102BF000FDF7AAFB12208DF8000000208DF80100DF
:102C000001208DF802008DF803006846FDF7A1FB56
:102C100008BD10B5FFF794FFFFF7A2FFFFF7E5FF30
:102C200010BD10B501224FF408710F48FDF763FC89
:102C300001210D48FDF749FC01210B48FDF785FCFA
:102C400010BD10B500224FF408710748FDF753FC82
:102C500000210548FDF739FC00210348FDF775FC0C
:102C600010BD0000000801400024014008B501210A
:102C70000820FEF71BF90120ADF8000010208DF8A8
:102C8000030003208DF8020069460948FDF752FE53
:102C90000220ADF8000069460548FDF74BFE012112
:102CA0000348FDF7F4FE02210148FDF7F0FE08BDE0
:102CB000000C014008B501210420FEF7F7F80120BF
:102CC000ADF8000010208DF8030003208DF80200FD
:102CD00069468548FDF72EFE01218348FDF7D7FEA2
:102CE00008BD08B50120ADF8000048208DF80300AC
:102CF00069467D48FDF71EFE08BD08B50120ADF808
:102D0000000010208DF8030003208DF802006946B2
:102D10007548FDF70FFE08BD10B5FFF7EEFF012166
:102D20007148FDF7B6FE40F2EE20FFF7A2FE01214A
:102D30006D48FDF7ACFE0F20FFF79BFE10BD10B5F0
:102D40000024FFF7CEFF04E0601CC4B20120FFF7AF
:102D500090FE01216448FDF780FE08B1642CF3DB8E
:102D6000642C01DB012010BD002404E0601CC4B20F
:102D70000120FFF77EFE01215B48FDF76EFE08B9DA
:102D8000F02CF3DBF02C01DB0120ECE70020EAE77C
:102D900010B5FFF7B2FF01215348FDF77AFE0A2074
:102DA000FFF767FEFFF79DFF01214F48FDF755FE36
:102DB000012801D1012400E000242D20FFF759FE55
:102DC000204610BD70B50026002408E0FFF7E0FFA4
:102DD000054605FA04F03043C6B2601CC4B2082CA4
:102DE000F4DB304670BD70B50446FFF786FF002562
:102DF00022E004F00106641076B101213A48FDF7A3
:102E000048FE0820FFF735FE01213748FDF73FFE59
:102E10003A20FFF72EFE0DE001213348FDF739FE81
:102E20004620FFF726FE01212F48FDF730FE022045
:102E3000FFF71FFE681CC5B2082DDADB70BD10B5A8
:102E4000FFF76AFFFFF77BFFCC20FFF7CCFF4420A2
:102E5000FFF7C9FF10BD10B5FFF72CFFFFF75CFFB0
:102E6000FFF76DFF10BD2DE9F05FFFF755FFFFF78E
:102E700066FFCC20FFF7B7FF4420FFF7B4FFFFF752
:102E80004BFFFFF75CFFCC20FFF7ADFFBE20FFF745
:102E9000AAFFFFF797FF8346FFF794FF82464FEAAA
:102EA0000A2004B244EA0B04002C0DDAE043401C73
:102EB00000F0D7FB074600220C4B00F0ECFA054669
:102EC00000F0F3FB81460BE0204600F0CAFB07460A
:102ED0000022064B00F0DFFA054600F0E6FB8146D3
:102EE0004846BDE8F09F0000000801400000B03FE8
:102EF00008B54FF4A060FDF727FA27208DF80000F1
:102F000001208DF801008DF802008DF8030068465D
:102F1000FDF71FFA08BD00B585B001210820FDF7B7
:102F2000C5FF01218804FDF7CEFF4FF48060ADF8A6
:102F3000100018208DF8130003208DF8120004A94A
:102F40003C48FDF7F7FC4FF40060ADF8100004209A
:102F50008DF8130004A93748FDF7ECFC4FF4E1307D
:102F600000900020ADF80400ADF80600ADF80800B0
:102F7000ADF80C000C20ADF80A0069462E48FEF7AB
:102F80004AFFFFF7B5FF012240F225512A48FEF71C
:102F9000DAFF01212848FEF7CAFF05B000BD70B571
:102FA00004460D4629462046FFF72EF800BF802133
:102FB0002046FFF797F80028F9D070BD70B5064697
:102FC0000C46002500BF615D3046FFF7E8FF6D1C31
:102FD000605D0028F7D100BF40213046FFF782F83E
:102FE0000028F9D070BD2DE9F04105460C46260AAF
:102FF000E7B231462846FFF707F800BF8021284690
:10300000FFF770F80028F9D039462846FEF7FCFF94
:1030100000BF80212846FFF765F80028F9D0BDE8F9
:10302000F0810020054908700549044A1278885447
:1030300070470000000C0140004800407A0000206A
:10304000A011002008B54FF4A060FDF77DF92620FF
:103050008DF8000001208DF801008DF802008DF838
:1030600003006846FDF775F908BD00B585B001217C
:103070004804FDF728FF01210420FDF717FF042075
:10308000ADF8100018208DF8130003208DF8120001
:1030900004A94648FDF74EFC0820ADF81000482072
:1030A0008DF8130004A94148FDF744FC4FF4E130CA
:1030B00000900020ADF80400ADF80600ADF808005F
:1030C000ADF80C000C20ADF80A0069463848FEF750
:1030D000A2FEFFF7B7FF012240F225513448FEF768
:1030E00032FF01213248FEF722FF40213048FFF72E
:1030F00006F805B000BD70B504460D4629462046C9
:10310000FEF782FF00BF80212046FEF7EBFF00287C
:10311000F9D070BD2DE9F04107460D461646002452
:1031200000BF295D3846FFF7E6FF641CB442F8D3C0
:10313000BDE8F08170B506460C46002500BF615D14
:103140003046FFF7D8FF6D1C605D0028F7D170BDD9
:1031500001461848007808801748704740F201106F
:103160000021144A117005E00022411E89B2084670
:10317000114B5A540028F7D1704710B5002240F285
:1031800025510B48FEF7DFFE00210948FEF7CFFE70
:1031900010BD10B5012240F225510548FEF7D3FEBF
:1031A00001210348FEF7C3FE10BD000000080140E6
:1031B000004400407B000020A0150020D2B201E0B6
:1031C00000F8012B491EFBD270470022F6E710B52C
:1031D00013460A4604461946FFF7F0FF204610BD85
:1031E00030B505462A460B4612F8010B13F8014B81
:1031F00008B1A042F8D01CB1002802D06D1CF1E744
:10320000284630BD10B5044604E00B7800F8013BB9
:1032100003B1491C521EF8D2204610BDF0B480EA1A
:103220000102D40F4200B2EB410F02D2024608461F
:1032300011464A0042D0C30DDDB2C1F3C752AD1AE8
:10324000202D35DAC1F3160141F4000204B15242D7
:10325000C5F1200602FA06F12A411044B3EBD05F13
:1032600023D0C4B1012DA0EBC35009DCF0BC4FF05A
:10327000004202EAC352DBB200F5000000F0A2BA3D
:10328000400000F1807000EBC350A0F1807040EA74
:10329000D170490009E0490841EAC071A0EBC35070
:1032A00000F50000400800EBC350F0BC00F081BA0C
:1032B0006142012202EB4101001BF6E7F0BC7047BE
:1032C00081F00041AAE780F00040A7E730B480EA2F
:1032D000010202F0004530F0004221F0004013D01E
:1032E00090B1C30DD40DC2F31601C0F31600E41A59
:1032F00041F4000140F400027D34914201D3641C8A
:1033000000E04900002C02DA30BC002070474FF486
:1033100000000023914201D3891A034340084FEA79
:103320004101F7D151B1914202D14FF0004105E086
:1033300002D24FF0010101E06FF0010103EBC45034
:10334000284430BC00F035BA2DE9FE4F804681EAB2
:103350000300C00F0C46009021F0004123F000450F
:10336000B8EB0200A94105D24046214690461C46D2
:103370000B46024623F00040104347D0270DC7F309
:103380000A00C3F30A510290401A019040286BDAF8
:10339000C3F3130040F4801B0098924620B1002331
:1033A000D2EB030A63EB0B0B01985946C0F14002C4
:1033B000504600F0DDF906460D4650465946019A42
:1033C00000F0E5F910EB08006141002487EA115292
:1033D00084EAE7731A4340D0009A62B3019A012A43
:1033E0004FEA075215DC001B61EB02014FF000426F
:1033F00002EA0752CDE90042001C41F58011324635
:103400002B4600F01AFA03B0BDE8F08F4046214683
:10341000F9E7001B61EB0201001C41F58013001865
:103420005B412018A2F5001747EB030140EAD57075
:10343000B6196D4111E06D084FEA360645EAC075D0
:103440004FEA0752001B61EB0201001C41F580119D
:1034500049084FEA30000019514132462B4603B06B
:10346000BDE8F04F00F0DCB90098012240000023D5
:10347000D0EB020263EBE073009821464FEAE07460
:10348000B8EB000061EB0401E9E783F000435BE780
:1034900081F0004158E72DE9FE4F81EA030404F072
:1034A000004421F0004100944FF0000B23F0004352
:1034B00050EA01045ED052EA03045BD0C3F30A541D
:1034C000C1F30A552C44A4F2F3340194A0FB025436
:1034D000C1F3130141F48011C3F3130343F48013C8
:1034E00001FB024400FB034E840A970A44EA81541C
:1034F00047EA8357A4FB076802958D0A05FB0785F9
:103500004FEA932C04FB0C542705029D4FEA065802
:1035100047EA1637B5EB08056EEB070C870E920EDF
:1035200047EA811742EA8312A7FB0201B6EB0B01BF
:1035300064EB00042B0D43EA0C335E1844EB1C5083
:10354000DA465146E7FB0201C5F313044FEA0B3399
:1035500043EA14534FEA0432019C43EA0603A4F100
:103560000C040294009CCDE900B400F066F903B0AD
:10357000BDE8F08F00200146F9E72DE9F04D81EA22
:10358000030404F0004B21F0004514464FF0000AFC
:1035900023F0004150EA050220D054EA01021DD078
:1035A000C5F30A570246C5F31303C1F31300C1F371
:1035B0000A5640F4801543F48013A7EB0608101B4D
:1035C000D64608F2FD3873EB050002D308F1010876
:1035D00001E092185B41B8F1000F03DA00200146C8
:1035E000BDE8F08D00204FF48011064684460EE0C1
:1035F000171B73EB050705D3121B63EB050306438B
:103600004CEA010C49084FEA300092185B4150EA3D
:103610000107EDD152EA030012D082EA040083EAE6
:103620000501084305D0101BAB4106D2012200233F
:1036300006E000224FF0004302E06FF00102531059
:103640001AEB06004CEB085110EB0A0041EB0B01A2
:10365000BDE8F04D00F0E4B896230022114600F0DA
:10366000B1B80EB5C10F80EAE0700844CA07002166
:1036700040F233438DE80E000A460B4600F0DDF8B9
:1036800003B000BD00F0004230F000400AD0C10D90
:1036900001F56071C0F3160042EA0151C20840070B
:1036A0001143704700200146704701F0004330B4D9
:1036B00021F0004150EA010206D00A0DA2F5607225
:1036C000C1F31301002A02DC30BC00207047440F14
:1036D00044EAC104C100E01830BC00EBC25000F065
:1036E00068B830B50B46014600202022012409E0CD
:1036F00021FA02F59D4205D303FA02F5491B04FAAB
:1037000002F52844151EA2F10102F1DC30BD2DE9BD
:10371000F05F0546002092469B4688460646814655
:1037200040241BE0284641464746224600F07AF9ED
:1037300053465A46C01A914110D3114618462246A4
:1037400000F016F82D1A67EB01084F4622460120BB
:10375000002100F00DF817EB00094E41201EA4F1E6
:103760000104DFDC484631462A464346BDE8F09F67
:10377000202A04DB203A00FA02F100207047914031
:10378000C2F1200320FA03F3194390407047202A26
:1037900006DBCB17203A41FA02F043EAE07306E079
:1037A00041FA02F3D040C2F1200291400843194689
:1037B00070470029A8BF7047401C490008BF20F08F
:1037C0000100704710B4B0FA80FC00FA0CF050EA27
:1037D000010404BF10BC704749B1CCF1200421FAA8
:1037E00004F411FA0CF118BF012121430843A3EBA3
:1037F0000C01CB1D4FEA00614FEA102042BF0020B0
:1038000010BC704700EBC35010440029A4BF10BC8B
:103810007047401C490008BF20F0010010BC7047F1
:1038200010B5002B08DA401C41F1000192185B41F1
:103830001A4301D120F0010010BD2DE9F04D924650
:103840009B4611B1B1FA81F202E0B0FA80F2203267
:103850009046FFF78DFF04460F4640EA0A0041EA12
:103860000B0153465A46084313D0114653EA010050
:1038700019D0C8F14002504600F0D4F805460E4673
:10388000504659464246FFF773FF084305D00120D2
:1038900004E020463946BDE8F08D0020054346EAA5
:1038A000E0762C4337430A986305E40AA0EB08004E
:1038B0000022FD0A44EA47540A3002D5002001469E
:1038C000E9E7010510196941DDE908450019694179
:1038D000BDE8F04DA4E770B521F0004303430CD0E0
:1038E000C1F30A550024D5EB040564EB0403D61795
:1038F000AD1AB34102DB0020014670BD201841EB38
:10390000025170BD2DE9F04D00231A461B1A8A4161
:1039100003DB00200146BDE8F08DC1F30A52C1F37C
:10392000130141F480154FF0000BD10702D10018AC
:103930006D41521E0027044640F2FF11384601EB4C
:10394000620A3E468046024600204FF4801100F095
:1039500069F8C2197141BB1846EB0100B4EB030CC6
:1039600075EB000C04D3E41A65EB000517460E4610
:10397000241908F101006D4180463428E3DDF9196E
:1039800046EB0600091BA84103D24FF0FF32134655
:1039900001E0002213461BEB070046EB0A51BDE88D
:1039A000F04DFFF73DBFC1F30A52C1F3130140F2DE
:1039B000FF3341F480119A4202DA00200146704739
:1039C00040F233439A42A2F2334202DC524200F008
:1039D00029B8FFF7CDBE000030B5002904DB4FF059
:1039E0000044404264EB0101002B04DB4FF0004433
:1039F000524264EB0303994208BF904230BD00007D
:103A0000064C074D06E0E06840F0010394E807002B
:103A100098471034AC42F6D3FCF78EFBF84E000802
:103A2000184F0008202A04DB203A21FA02F0002176
:103A3000704721FA02F3D040C2F1200291400843BE
:103A4000194670470FB4054B10B503A9044A0298F4
:103A500000F056F910BC5DF814FB0000CB290008FB
:103A60007C0000200FB4084B10B504A902AA0398EB
:103A700000F046F9044602A9002000F0D8FC2046D8
:103A800010BC5DF814FB00002F440008490050EA08
:103A9000C12018BF04204A0D18BF40F0010040F2B9
:103AA000FF72B2EB515F08BF40F00200012808BF6F
:103AB000052070472DE9F0414F1E00EBC701044679
:103AC000D1E9000115461E4637F006020DD02A4600
:103AD0003346FFF7E0FC7F1E04EBC703D3E9002366
:103AE000FFF732FC37F00602F1D1022F25D0042F68
:103AF00013D0062F18BFBDE8F0812A463346FFF7E2
:103B0000CAFCD4E90A23FFF71FFC2A463346FFF715
:103B1000C2FCD4E90823FFF717FC2A463346FFF717
:103B2000BAFCD4E90623FFF70FFC2A463346FFF719
:103B3000B2FCD4E90423FFF707FC2A463346FFF71B
:103B4000AAFCD4E90223FFF7FFFB2A463346FFF71E
:103B5000A2FCD4E90023BDE8F041FFF7F5BB00006B
:103B6000024A00201107FFF7B6BE000001FDFFFF6B
:103B700002E008C8121F08C1002AFAD17047704736
:103B8000002001E001C1121F002AFBD17047000094
:103B90000149086070470000800000202DE9FF5FA8
:103BA000DDE90220010DDDF838B0024318D044F6FB
:103BB0001050A1F2FF3141430D140F98012820D07D
:103BC000A5EB0B00401C5FEA000A4FF00004474ED3
:103BD000DFF81C91A046504616D5CAF1000728E030
:103BE0000F98012443A2012808D0002100980F9BC0
:103BF000C0E90021C0E90243BDE8FF9F6FEA0B0165
:103C0000F4E7CBF10000DEE7074612E0F80707D043
:103C10002246334640464946FFF73DFC80468946EA
:103C20002246334610461946FFF735FC04460E4639
:103C30007F10002FEAD1DDE90201BAF1000F424600
:103C40004B4602DAFFF727FC01E0FFF796FC04463B
:103C50000E460022284BFFF7BFFE03D84FF0FF307F
:103C6000014607E00022254B20463146FFF76CFB5A
:103C7000FFF799FE102409E0002C0ADB0A2200233A
:103C8000FFF745FD019B30321A55641E50EA0102D0
:103C9000F2D1641C019AC4F1110314440F9A012A51
:103CA00003D0012208430DD10AE0084304D00020CC
:103CB0004FF0110B0F9080E7A3EB0B056D1E0DE08D
:103CC0005B4504DD4FF0000205F1010504E003DA75
:103CD0004FF00002A5F10105002AECD000980F99E1
:103CE000C0E90231C0E9004586E700000000244039
:103CF0000000F03F300000000000F0430000E03F13
:103D00002DE9FF4F95B09B468946064600250FE2F8
:103D1000252877D100242746F84A0121059400E0A0
:103D2000044316F8013F203B01FA03F01042F7D19B
:103D300030782A2811D06FF02F033078A0F13002AC
:103D4000092A16D8059A44F0020402EB820203EB1A
:103D500042021044761C0590EFE759F8042B0592B7
:103D6000002A03DA504244F40054059044F002045F
:103D7000761C30782E2816D116F8010F44F0040472
:103D80002A280DD06FF02F023078A0F13003092BD4
:103D900009D807EB870302EB4303C718761CF3E748
:103DA00059F8047B761C30786C280FD006DC4C2840
:103DB00017D068280DD06A2814D104E0742810D0D8
:103DC0007A280FD10DE044F400140AE044F4801482
:103DD00001E044F440147278824202D104F5801468
:103DE000761C761C307866280BD013DC582877D0E8
:103DF00009DC002875D04528F6D04628F4D047289D
:103E00001AD19DE118E0632835D0642879D065285F
:103E100012D195E1702873D008DC6728F1D06928A9
:103E20006FD06E280DD06F2806D1B5E073282CD046
:103E3000752875D0782874D05A46179990476D1C0C
:103E400075E1C4F30250022809D003280DD0D9F837
:103E5000001004280DD00D6009F1040967E1D9F8BC
:103E60000010EA17C1E90052F6E7D9F800100D80FA
:103E7000F2E70D70F0E719F8041B8DF80010002030
:103E80008DF80100EA46012003E059F804AB4FF039
:103E9000FF3061074FF0000102D40DE008F101018D
:103EA0008846B9420FDA8045F8DB1AF80810002975
:103EB000F4D108E008F1010188468142FADB1AF8E2
:103EC00008100029F6D105985B46A0EB08072146AB
:103ED0003846179A00F094FA284400EB080507E0EA
:103EE0004DE029E10DE01AF8010B5A461799904769
:103EF000B8F10108F7D25B4621463846179A13E11C
:103F000042E00A220092C4F302524FF0000A022A51
:103F100008D059F804CB032A4FEAEC710AD00DE01F
:103F200029E02AE009F1070121F00702F2E802C1C5
:103F3000914609E00FFA8CFC4FEAEC71042A03D198
:103F40004FFA8CFC4FEAEC71002907DA0A4600218F
:103F5000DCF1000C61EB02012D2202E0220504D508
:103F60002B228DF80420012203E0E20701D0202259
:103F7000F7E7904659E00A2102E010220DE01021F7
:103F80004FF0000A00910BE010224FF0000A44F0BD
:103F900004040827009203E008224FF0000A009270
:103FA000C4F30252022A05D059F804CB0021032A97
:103FB00008D009E009F1070121F00702F2E802C187
:103FC000914605E01FFA8CFC042A01D10CF0FF0C8D
:103FD0004FF00008220728D5702806D0009B83F0F8
:103FE000100353EA0A0305D00EE040228DF80420A6
:103FF000012208E05CEA010206D030228DF804209C
:104000008DF8050002229046009B83F0080353EAD6
:104010000A030AD15CEA010201D1620705D5302208
:104020008DF804204FF001087F1E582804D034A0DA
:1040300003900EA802900DE036A0F9E753466046C3
:10404000009AFFF764FB84460398825C0298401E46
:10405000029002705CEA0100F0D1029806A9081AE9
:1040600000F1200A600702D524F4803400E0012723
:10407000574502DDA7EB0A0000E0002000EB0A0133
:10408000009005984144401A0590E00306D45B4631
:104090002146179A059800F0B3F90544002706E079
:1040A00001A85A46C05D179990476D1C7F1C474573
:1040B000F6DBE0030CD55B462146179A059800F025
:1040C0009FF9054404E030205A46179990476D1C2B
:1040D0000099481E00900029F5DC08E0029802993A
:1040E0005A460078491C0291179990476D1CBAF105
:1040F0000001AAF1010AF1DC65E1000009280100D4
:10410000303132333435363738396162636465664D
:10411000000000003031323334353637383941420F
:10412000434445460000000000F058F90544761C61
:10413000307800287FF4ECAD19B02846BDE8F08F48
:10414000620700D4062709F1070222F0070CFCE8F9
:104150000223E14603F000485FEA080C02D00FF2A8
:10416000702C0DE05FEA045C02D50FF2682C07E0CA
:104170005FEAC47C02D00FF2602C01E0AFF2700C59
:104180004FF0FF3823F00043CDF850C065280CD025
:1041900006DC452809D046281DD047283DD13DE002
:1041A000662818D067287ED138E00021112F01DB66
:1041B000112000E0781CCDE9000106A90EA8FFF748
:1041C000EDFCDDE90F010E9A03910021009207F149
:1041D000010A04914DE04FF000400097CDE9011035
:1041E00006A90EA8FFF7DAFCDDE90F0203920E9B89
:1041F00011990022DDF80CA00093049211B9791CEA
:1042000000EB010AB7EB0A0004D4C0F1FF3007F15C
:10421000010A0490AAEB0700019044E0012F00DAA4
:1042200001270021112F01DD112000E03846CDE9E2
:10423000000106A90EA8FFF7B1FCDDE90F010E9AF7
:104240000391002104910092BA4621070CD40399EE
:10425000514500DA8A46BAF1010F05DD009AAAF14C
:104260000101515C302908D0B84202DA10F1040F84
:1042700006DA0121CDE9011015E0AAF10101E9E713
:10428000002805DC049901440491AAEB000102E036
:10429000411C514500DD8A460499401A401C01909A
:1042A0004FF000400290200704D40198504501DBF4
:1042B000CDF8048000208DF84F0002980DF14F07D3
:1042C000B0F1004F25D02B200E9002984FF002083D
:1042D00000280CDA404202902D200E9007E00A21BF
:1042E0000298FFF7FEF93031029007F8011DB8F18E
:1042F0000001A8F10108F2DC02980028EFD1791E34
:104300000E980870307800F0200040F0450007F863
:10431000020D12A8C01B00F107081498007800B124
:10432000012000EB0A01019801EBE071059841447E
:10433000401A401E0590E00306D45B462146179ABA
:10434000059800F05DF805441498007818B15A46B5
:10435000179990476D1CE00324D55B462146179AB8
:10436000059800F04DF805441CE00498002807DB90
:10437000DDE90301884203DD0098405C179901E004
:10438000179930205A469047049805F10105401CC2
:1043900004900198401E019004D12E205A4617998E
:1043A00090476D1CBAF10001AAF1010ADDDC05E0BD
:1043B00017F8010B5A46179990476D1CB8F1000188
:1043C000A8F10108F4DC5B462146179A0598ABE694
:1043D0002D0000002B000000200000002DE9F0411E
:1043E000044600251E461746880404D405E03946D5
:1043F0002020B0476D1C641EF9D52846BDE8F08129
:104400002DE9F041044600251E469046C80301D51B
:10441000302700E02027880404D505E041463846CF
:10442000B0476D1C641EF9D52846BDE8F0810A68C6
:10443000531C0B60107070472DE9F04D16460F4667
:104440000546020094B01C4621F0004123F00040D4
:1044500014BF4FF0010C4FF0000C0CEB470CFE4B5F
:104460000CEB03084FEA630CE0452DD35FEA060826
:1044700018BF4FF0010808EB44089844F74B9845E3
:1044800022D3F74B50EA060C02D09F4205D14AB91D
:1044900014B000201946BDE8F08D002A08BF4FF087
:1044A000000C01D04FF0010C0CEB470313F5001F7B
:1044B0000AD8002E14BF4FF0010C4FF0000C0CEB8B
:1044C000440313F5001F08D914B03246234628468A
:1044D0003946BDE8F04DFEF737BFDFF888B34FF03F
:1044E000000A002FB8BF584523DADF4B9842A8BF17
:1044F0004FF0020A1DDADA4B83421ADCDB4B03EB86
:104500002053142B08DDC3F1340C26FA0CF303FA04
:104510000CFCB4450DD108E05EB9C3F1140C20FACF
:104520000CF303FA0CFC844503D103F00103C3F13F
:10453000020A51EA020321D1002C1FDA002F18BF12
:10454000BAF1020F02D0BAF1010F0BD00220FFF72F
:104550001FFB14B00022BDE8F04D13461046C049C1
:10456000FFF70BB80220FFF713FB14B02A463B46B7
:10457000BDE8F04D0020BA49FEF7FFBF33006DD112
:10458000584525D107F1804010F5801001BF002A61
:104590000020B34914B008BFBDE8F08DB048884290
:1045A00007DC002CA1BF1846214614B0BDE8F08DF1
:1045B00007E0002CBFBF184684F0004114B0BDE8EE
:1045C000F08DAB497944D1E9000114B0BDE8F08D1C
:1045D000DFF88CC2604526D1002C1FDA19B159458D
:1045E00013D1DAB90AE0002A40F0DA829D4A39464E
:1045F00014B0002062F31E01BDE8F08D00203946A2
:1046000014B060F31E01BDE8F08D07DA14B03B462C
:10461000BDE8F04D00206146FEF7AFBF14B0104674
:104620003946BDE8F08D594518DAB4F1804F0DD008
:10463000A4F10053B3F1FF5310D13B1E0EDB14B0B5
:104640001046BDE8F04D194600F0E6BB3B4614B0FD
:104650001046BDE8F04D1946FEF71DBF27F0004398
:10466000A2BBE1B1594538D1002F06DD002CA1BF16
:104670000020594614B0BDE8F08D002F01DD002C5C
:104680001FDB002F16DA002C14DBBAF1010F4FF0FC
:10469000000014BF7349774914B0BDE8F08DBAF13A
:1046A000020F18BF002F0CD0BAF1010F09D1002F53
:1046B00007DA0CE0002FB8BF002C0EDABAF1010FB8
:1046C00005D0002014B00146BDE8F08D05E014B01F
:1046D00000204FF00041BDE8F08D4FF0010C0CEBD5
:1046E000E7720D9252EA0A020BD0634A90427DDDD6
:1046F000624B634A984216DD8A420EDB002C1CDBBB
:104700002CE00120FFF744FA14B00022BDE8F04D80
:10471000134610461146FEF730BF5148884202DC6E
:10472000002C0ADC1AE0914202DA002C16DA04E0CE
:104730004B4B99421EDD002C10DD0220FFF728FABA
:1047400040F2013200204FF0E041FFF7C4F8454A43
:1047500014B061F31E021146BDE8F08D0220FFF790
:1047600017FAFFF7FDF93E4A14B061F31E02114635
:10477000BDE8F08D002228463946FEF786FE054644
:1047800088466FF00102FFF7A6F84FF055323D4B17
:10479000FEF77EFE2A464346FEF77DFE00223A4B98
:1047A000FEF776FE07468B462A46434610461946D4
:1047B000FEF771FE3A465B46FEF76DFE09910C90DE
:1047C0004FF0C042314B28464146FEF764FE074693
:1047D0008B462F4A2D4B09990C98FEF75CFECDE9CC
:1047E00001102C4A2C4B2846414600E019E0FEF708
:1047F00052FEDDE90132FEF748FE3A465B4605917E
:104800000890FEF7A1FD002588463A465B462846FB
:10481000FEF73BFE059B089AFEF73AFE024600F0C3
:1048200076B90020B1F5801F07DA352228461946EF
:10483000FFF751F805466FF0340000EB2150A0F26D
:10484000FF300190C1F3130040F07F6141F040510F
:1048500002911249884223E0FFFF1F00FFFF0F0073
:104860000000F03F0000F07F0000404301FCFFFF2C
:10487000280900000000F0FF0000E0410000F043C4
:10488000FFFFEF3F5555D53F0000E03F4715F73F8D
:10489000FE822B6544DF5DF80BAE543E8E9803001C
:1048A000D8BF4FF0000B0EDDFE498142C8BF4FF06C
:1048B000010B08DC01984FF0000B401C019002989E
:1048C000A0F580100290F8480299784400EBCB00E4
:1048D0000B911090D0E900232846FEF7D6FD0090FA
:1048E00010980791D0E9002328460B99FEF72CFD7C
:1048F00002460B460020ED49FEF73FFE05910B46B0
:104900000246089007990098FEF7C5FD0690E84812
:10491000884600277844029900680E904FF00050B6
:1049200040EA610000EB8B4000F5002110980291F5
:10493000D0E900230E98FEF7A8FD2A460B9BFEF750
:10494000A7FD3A464346FEF7A6FD05460B913846BD
:104950004146029B0E9AFEF79EFD079B009AFEF7CA
:1049600097FD2A460B9BFEF790FD059B089AFEF7E4
:1049700092FD0B911090069A434610461946FEF799
:104980008AFD05460246CB480B4600910621784435
:10499000FFF790F8009B2A460291089010461946AE
:1049A000FEF779FD029B089AFEF775FD0546059115
:1049B000434638461946069AFEF7C6FC0B9B109AEA
:1049C000FEF769FD2A46059BFEF7BEFC3A464346C4
:1049D0000591089010461946FEF75DFD0022B64B82
:1049E00000910C90FEF7B0FC059B089AFEF7ACFC1A
:1049F0000D463A46B04B3846FEF747FD009B0C9AF1
:104A0000FEF743FD059B089AFEF742FD11913A46D9
:104A10000C902B4610464146FEF73DFD0791009055
:104A20004346069A11990C98FEF735FD804603918E
:104A30002B463A460B991098FEF72DFD4246039BF4
:104A4000FEF782FC059180460B46024607990098C6
:104A5000FEF77AFC00200F460546079B009AFEF7FA
:104A600014FD4246059BFEF713FD804609914FF069
:104A70006042924B28463946FEF70DFD00910290A8
:104A80008F4A8E4B40460999FEF705FD80460391FB
:104A90008C4A8D4B28463946FEF7FDFC4246039B67
:104AA000FEF752FC894A7A4402EBCB03D3E9002398
:104AB000FEF74AFC069003910198FEF7D2FD0746E7
:104AC000DDE902030591069A0099FEF73DFC804A54
:104AD0007A4402EBCB0BDBE90023FEF735FC3A46C8
:104AE000059BFEF731FC002588463A462846059B83
:104AF000FEF7CBFCDBE90023FEF7C7FC009B029A24
:104B0000FEF7C3FC039B069AFEF7C2FC0246002098
:104B100006900D98654FAAF10103184301D16D4F1E
:104B2000069000200B46009030462146FEF7B3FC6D
:104B300082468B46234630461946009AFEF7A5FC6E
:104B40002A464346FEF7A7FC52465B46FEF7FCFBAF
:104B500006468A462A46434621460098FEF79BFCB5
:104B600004460D4632465346FEF7EEFB5A4A8B4644
:104B7000914226DBABEB020353EA000210D122463E
:104B80002B46FEF782FC80460591544A544B304632
:104B90005146FEF7D9FB4246059BFEF71DFF30D27A
:104BA0000220FEF7F5FF40F2013200204FF0E04115
:104BB000FEF791FE0A46394614B062F31E01BDE8C5
:104BC000F08D484B2BF000429A421AD3464A0BEB29
:104BD000020353EA000208D122462B46FEF755FC99
:104BE00032465346FEF7F8FE0BD80220FEF7D0FF00
:104BF000FEF7B6FF0A46394614B062F31E01BDE85F
:104C0000F08D2BF000403949394A01EB20514FF02B
:104C10000008824223DA481C4FF4801121FA00F088
:104C20005844344AC0F30A517A44334BA1F2FF315D
:104C3000CB4020EA0303C0F3130040F4801CC1F111
:104C4000140012682CFA00F8BBF1000FB8BFC8F1CD
:104C5000000820462946FEF718FC04460D46224669
:104C60002B4630465146FEF76FFB4FF0000B5A467D
:104C7000224B58460591FEF70EFC00900791204A02
:104C8000204B58460599FEF706FC049102902246F7
:104C90002B4658460599FEF7F8FB32465346FEF779
:104CA000F7FB31E07AB60B009A0500000000F03FF8
:104CB000D8050000060500000000084009C7EE3FC7
:104CC000FD033ADCF5015B14E02F3EBEDE0300007D
:104CD000A40300000000F0BF00009040FE822B659E
:104CE0004715973C00CC904000346F3F01FCFFFF1C
:104CF0000000E03FC4020000FFFF0F00432EE63F2C
:104D0000396CA80C615C20BE3F4A404BFEF7C3FBE8
:104D1000049B029AFEF718FB06468A46079B009AF8
:104D2000FEF712FB04460D46079B009AFEF7ADFB0B
:104D300032465346FEF7ACFB064622462B46099107
:104D400010461946FEF7A7FB8346024630488A46BE
:104D50000B4605217844FEF7ADFE5A465346FEF752
:104D60009AFB22462B46FEF793FB82468B46324641
:104D700020462946099BFEF78EFB3246099BFEF72B
:104D8000E3FA0591089000224FF0804350465946BF
:104D9000FEF77BFB0646009152465B4620462946BD
:104DA000FEF779FB3246009BFEF7E7FB059B089A6E
:104DB000FEF76BFB22462B46FEF767FB0022154BE6
:104DC000FEF766FB0D46044601EB08510815002866
:104DD00010DC424620462946FEF77DFDFEF756FED2
:104DE000042808BFFEF7BCFE424620462946FEF7CF
:104DF00072FD044606980B4614B022463946BDE8BB
:104E0000F04DFEF748BB0000EF39FAFE422EE63FB8
:104E1000700100000000F03F2DE9F04106460F460A
:104E2000FEF770FD04000D4618BF0120284320F056
:104E30000040C0F17F6000F1E040C00F0ED0301C98
:104E400018BF0120384320F00040C0F17F6000F11E
:104E5000E040C00F04BF0120FEF79AFE204629461D
:104E6000BDE8F08100000000000000000000F03FFD
:104E7000000000000000F83F0000000000000000FB
:104E80000000004003B8E23F000000000000000006
:104E900006D0CF43EBFD4C3E033333333333E33F94
:104EA000FFAB6FDBB66DDB3F4D268F515555D53FC0
:104EB00001411DA96074D13F65DBC9934A86CD3F8E
:104EC000EF4E454A287ECA3F3E5555555555C53F7C
:104ED00093BDBE166CC166BF2CDE25AF6A56113F6E
:104EE000F16BD2C541BDBBBED0A4BE726937663E70
:104EF0000000000000000000184F00080000002023
:104F000084000000703B00089C4F000884000020D3
:104F10001C1A0000803B000800A24A0400000000A8
:104F20000000000001020304060708090000000059
:104F3000010203040102030406070809020406082B
:104F40000100000000000000000000000000000060
:104F50000000000000000000000000000000000051
:104F60000000000000000000000000000000000041
:104F70000000000000000000000000000000000031
:104F80000000000000000000000000000000000021
:0C4F900000000000000000000000000015
:0400000508000131BD
:00000001FF
